S01800004F6E6C696E6531355F50726F6A6563742E737265630B
S11300000C942A000C9447000C9447000C9447006D
S11300100C9447000C9447000C9447000C94470040
S11300200C9447000C9447000C9447000C94470030
S11300300C9447000C9447000C9447000C94470020
S11300400C9447000C9447000C9447000C94470010
S11300500C94470011241FBECFE5D8E0DEBFCDBF0E
S113006010E0A0E6B0E0E4EEF5E002C005900D92E9
S1130070A039B107D9F720E0A0E9B0E001C01D9292
S1130080A039B207E1F70E946D010C94F0020C94C0
S1130090000080E00E94EC00882331F081E00E949F
S11300A0EC0081113CC01EC080E00E94370182E058
S11300B00E94490181E00E94370183E00E944901C6
S11300C081E00E94290182E00E94290183E00E94CC
S11300D0290180E00E941B0180E00E94EC0088233B
S11300E0D9F3DCCF80E00E94490182E00E9437010D
S11300F081E00E94490183E00E94370180E00E9470
S1130100290182E00E94290183E00E94290181E003
S11301100E941B0181E00E94EC008823D9F382E055
S11301200E94EC0081111DC080E00E945B0181E00F
S11301300E945B0182E00E94370183E00E94370144
S113014080E00E94290181E00E94290183E00E944D
S1130150290182E00E941B0182E00E94EC008823B6
S1130160D9F383E00E94EC0081111DC082E00E945B
S11301705B0183E00E945B0180E00E94490181E011
S11301800E94490180E00E94290181E00E94290126
S113019082E00E94290183E00E941B0183E00E9407
S11301A0EC008823D9F30895CF93DF93C0E0D0E027
S11301B0FE01E058FF4F9081892F8F7396FD02C096
S11301C061E001C060E00E9454022196C430D10570
S11301D079F7DF91CF910895E82FF0E0E058FF4FD1
S11301E09081892F8F7396FD06C00E94D30291E0FF
S11301F0811107C005C00E94D30291E0813009F447
S113020090E0892F0895CF93DF93C0E0D0E0FE0102
S1130210EC57FF4F9081892F8F7396FF02C060E0E7
S113022001C061E00E9454022196C430D10579F7DF
S1130230DF91CF910895E82FF0E0EC57FF4F9081C4
S1130240892F8F7396FF02C061E001C060E00C94B7
S11302505402E82FF0E0EC57FF4F9081892F8F7301
S113026096FF02C060E001C061E00C945402CF9399
S1130270DF93C82FD0E0CC0FDD1FC857DF4F61E0FC
S113028088810E94540260E08981DF91CF910C94AF
S11302905402CF93DF93C82FD0E0CC0FDD1FC85793
S11302A0DF4F60E088810E94540261E08981DF9120
S11302B0CF910C945402CF93DF93C82FD0E0CC0F8E
S11302C0DD1FC857DF4F60E088810E94540260E060
S11302D08981DF91CF910C9454020E9476010E948F
S11302E003010E94D4000E944900FDCFE0E6F0E043
S11302F040E081E090E05191342F36953695369563
S1130300242F2770513009F443C020F0523009F4EF
S113031082C0C5C0323001F1333061F1313071F047
S11303205AB3BC0102C0660F771F2A95E2F79B01FE
S1130330352F322B3ABB3BB320953DC057B3BC019C
S113034002C0660F771F2A95E2F79B01352F322BE7
S113035037BB38B320953EC054B3BC0102C0660F0E
S1130360771F2A95E2F79B01352F322B34BB35B327
S113037020953FC051B3BC0102C0660F771F2A9578
S1130380E2F79B01352F322B31BB32B3209541C0AC
S1130390323011F1333081F1313079F05AB3BC018C
S11303A002C0660F771F2A95E2F79B012095352F2F
S11303B032233ABB3BB3232342C057B3BC0102C030
S11303C0660F771F2A95E2F79B012095352F32237C
S11303D037BB38B3232343C054B3BC0102C0660FF8
S11303E0771F2A95E2F79B012095352F322334BBE2
S11303F035B3232325BB53C051B3BC0102C0660FE0
S1130400771F2A95E2F79B012095352F322331BBC4
S113041032B3232343C0323021F1333089F13130F8
S113042081F05AB3BC0102C0660F771F2A95E2F728
S11304309B01362F309535233ABB3BB3232B2BBB83
S11304402EC057B3BC0102C0660F771F2A95E2F78E
S11304509B01362F3095352337BB38B3232B28BB6C
S11304601EC054B3BC0102C0660F771F2A95E2F781
S11304709B01362F3095352334BB35B3232BBACFAC
S113048051B3BC0102C0660F771F2A95E2F79B01A6
S1130490362F3095352331BB32B3232B22BB4F5F2C
S11304A0403209F028CF0895982F96959695969501
S11304B087706130C1F5913091F028F09230D9F015
S11304C0933029F108954BB321E030E0B90102C023
S11304D0660F771F8A95E2F7CB01842B38C048B3A7
S11304E021E030E0B90102C0660F771F8A95E2F778
S11304F0CB01842B3AC045B321E030E0B90102C0FE
S1130500660F771F8A95E2F7CB01842B3CC042B378
S113051021E030E0B90102C0660F771F8A95E2F747
S1130520CB01842B3EC09130A1F028F09230F9F039
S1130530933059F108954BB321E030E0B90102C082
S1130540660F771F8A95E2F7CB01809584238BBBD6
S1130550089548B321E030E0B90102C0660F771F67
S11305608A95E2F7CB018095842388BB089545B32F
S113057021E030E0B90102C0660F771F8A95E2F7E7
S1130580CB018095842385BB089542B321E030E0FC
S1130590B90102C0660F771F8A95E2F7CB018095F7
S11305A0842382BB0895282F277086958695869587
S11305B0813049F030F0823041F0833079F480B3F7
S11305C005C089B303C086B301C083B390E002C001
S11305D0959587952A95E2F78170089580E00895AE
S10705E0F894FFCFB9
S11305E40000000000000000000000000000000003
S11305F402020202000000000000000001010101E7
S11306041011121358595A5B08090A0B0C0D0E0FDA
S9030000FC
